:080000000C9482000C94000036
:100008000C9400000C9400000C9400000C94000068
:100018000C9400000C9400000C9400000C94000058
:100028000C9400000C9400000C9400000C94000048
:100038000C9400000C9400000C9400000C94000038
:100048000C9400000C9400000C940000040A0015A5
:100058001F000000000200051F0008000001030344
:1000680001000000000006011F00040000001C0839
:100078001F03000000020606030000001027E80323
:1000880064000A00010000100001100001000000D7
:100098000000000000002D3F003100320033003422
:1000A80000350020002020005065727369616E20C1
:1000B8005254430054696D653D253032753A2530F8
:1000C80032753A25303275003133253032752F2597
:1000D8003032752F25303275000001002D4E414E0B
:1000E80000494E46000080C0080004009600010048
:1000F8006001E20002006401EE000000F894EE27BF
:10010800ECBBF1E0FBBFEBBFE5BF8DE0A2E0BB2796
:10011800ED938A95E9F780E094E0A0E6ED930197E6
:10012800E9F7E0EFF0E085919591009761F0A591EE
:10013800B59105901590BF01F00105900D920197BA
:10014800E1F7FB01F0CFEFE5EDBFE4E0EEBFC0E67D
:10015800D1E00C940102AA931A930A93EA81EE0F54
:10016800EE0FEE0FE0640E2F10E0183068F40A93DB
:100178000395EC81FD813196EC83FD833197A49141
:100188000E94B0041F5FF1CFF0C1A394E7E0EA1525
:1001980011F4AA2449C0AFE00E94A404EA2DF0E0BB
:1001A800E130A0E0FA0739F4E5E00E946905E6E0ED
:1001B800EA93A0E030C0E230A0E0FA0739F4E8E0C2
:1001C8000E946905E9E0EA93A0E025C0E330A0E0D9
:1001D800FA0729F4E2E00E947105E3E01AC0E4306E
:1001E800A0E0FA0729F4E5E00E947105E6E011C0F5
:1001F800E530A0E0FA0729F4E8E00E947105E9E09B
:1002080008C0E630A0E0FA0741F4EDE00E9471056D
:10021800EEE0EA93A1E00E94B804A4EFB1E00E94E6
:100228006F06ACE00E94A4040895E1E0EA1529F401
:10023800552019F05A940E947905E2E0EA1529F44C
:10024800442019F04A940E947905E3E0EA1539F44C
:100258000E948205662009F06A940E949205E4E0F3
:10026800EA1541F40E948205E1E0E91509F09A9443
:100278000E949205E5E0EA1541F40E948205E1E05A
:10028800E81509F08A940E949205E6E0EA1539F427
:100298000E948205BB2009F0BA940E949205089535
:1002A800E1E0EA1539F45394E8E1E51509F4552439
:1002B8000E947905E2E0EA1539F44394ECE3E41589
:1002C80009F444240E947905E3E0EA1549F40E9400
:1002D80082056394E4E6E61509F466240E94920513
:1002E800E4E0EA1551F40E9482059394EDE0E915E3
:1002F80011F4E1E09E2E0E949205E5E0EA1551F422
:100308000E9482058394E0E2E81511F4E1E08E2E64
:100318000E949205E6E0EA1549F40E948205B3942A
:10032800E7E0EB1509F4BB240E9492050895E4E583
:10033800F0E0FA93EA93A0E00EDFECE5F0E0FA9340
:10034800EA93A1E008DFE4E6F0E00EC0ECE6F0E0B6
:10035800FA93EA93A0E0FFDEE4E7F0E0FA93EA9389
:10036800A1E0F9DEECE7F0E0FA93EA93A2E0F3DE2D
:10037800EBE00E949805A2E00E94D104A1E00E944F
:10038800D104A0E00E94D1040895D1DFEEE00E94DC
:100398009805EB2DF0E0309719F4A1EAB0E02AC0F7
:1003A800E130A0E0FA0719F4A3EAB0E023C0E23094
:1003B800A0E0FA0719F4A5EAB0E01CC0E330A0E019
:1003C800FA0719F4A7EAB0E015C0E430A0E0FA078C
:1003D80019F4A9EAB0E00EC0E530A0E0FA0721F46C
:1003E800B5DFABEAB0E006C0E630A0E0FA0721F4DA
:1003F800ADEAB0E00E94F7040895A097E0E0E7BBFB
:10040800EFEFE8BBE0E0E4BBE5BB0E941E06E0E0DE
:10041800EA93EA93A0E00E942504A0E10E940A055D
:100428000E94C504A0EBB0E00E94F704A0EDB7E07D
:100438000E946F060E949C05EBE3E71578F4ECE058
:10044800EA93E2E2EA93A8E30E945704BA92EEE143
:10045800EA93EAE0EA93A6E70E947F04B09B95DE60
:10046800B19BE3DEB29B1CDF0E949C050E948205C3
:10047800FE017096FA93EA93ECEBF0E0FA93EA93B4
:10048800E52D0E94A805E42D0E94A805E72D0E94ED
:10049800A8058CE00E94F1036096FE01FA93EA93A6
:1004A800E0EDF0E0FA93EA93E62D0E94A805E92D25
:1004B8000E94A805E82D0E94A8058CE00E94F1037F
:1004C80060960E94C50461DFE0E0EA93A0E00E9424
:1004D800B804DE0150960E94E804E0E00E94980506
:1004E800DE010E94E804AAEFB0E00E946F06B6CFD2
:1004F800FFCFBA93AA931A930A93AA81BB81129643
:100508000E948106309759F1AA81BB8114960E94F6
:1005180081068F01309761F00230E0E01E0798F005
:10052800F80131978F01AA81BB811496ED93FC9352
:10053800AA81BB811296ED91FD913196FE93EE93BF
:100548003197AC81A083AA81BB810E948106FF23D9
:100558002AF0ED91FD913196FE93EE9306C0AA81A3
:10056800BB81EFEFFFEFED93FC931981088125968E
:100578000895BA93AA9326970E948E0610E0AC8538
:10058800BD85E0E0F0E0ED93FC93EA89FB893196C4
:10059800EA8BFB8B3197E4912E2FE03009F415C1DB
:1005A800E12FE03039F4253211F411E002C00E9445
:1005B800AE050AC1E130A9F4253219F40E94AE054E
:1005C80002C112E040E000E02D3211F401E0FCC06D
:1005D8002B3211F44BE2F8C0203211F440E2F4C09F
:1005E80002C0E23039F450E013E0203311F400681F
:1005F800EBC003C0E33009F0E7C0203310F02A3322
:1006080008F007C0AAE05A9F502DE22FE0535E0F72
:10061800DBC0E22FE33649F40E94B505E889F98981
:10062800A481AA930E94BB05CEC0E33741F40E947F
:10063800B5050E94C1050E9439051E2F0AC0E03782
:1006480061F40E94B5050E94C1050E9445051E2F50
:10065800086002600F7730E034C0E43611F0E93604
:1006680011F4046002C0E53731F4E4E8F0E0EE8309
:10067800FF8315E00CC0E83511F4086003C0E837C3
:1006880009F0A1C0EEE8F0E0EE83FF8314E002FF7A
:1006980014C00E94B5050E94CB05AB85AA233AF485
:1006A800EA85FB850E947D06EA87FB874DE240309C
:1006B80011F01F5F01C00B7F04C00E94B5050E94A6
:1006C800CB0500FD11C0151778F407FF08C002FF1D
:1006D80004C00B7F242F115001C020E301C020E289
:1006E8000E94AE055150EFCF312F01FF17C03030B7
:1006F800A1F003FF06C0EE81FF812591EE83FF8301
:1007080005C0AE81BF812D91AE83BF830E94AE0527
:10071800503009F051503150EACF4BC020E3EE8100
:10072800FF810E948506E887F987EE81FF8132966E
:10073800EE83FF83E885F985AA85BB85AE17BF07D9
:1007480050F02F5FA885B985EA85FB85EA1BFB0B6E
:10075800EA87FB87EFCF2A3328F003FF02C0295F1F
:1007680001C0295D04FD1AC0213320F4A885B9858C
:10077800119709F409C0531710F000FF01C013C006
:1007880020E207FF0BC020E3006102FF07C00B7FD8
:100798004A930E94BB05503009F051500E94AE05A3
:1007A800503009F051503150A885B985129708F09A
:1007B800B5CF00FF08C0503031F05150E0E2EA9365
:1007C8000E94BB05F8CF10E0E0CEAC85BD850E9445
:1007D80081060E94950664960895FF92F82E269742
:1007E8000E9490060E94D305309719F4EFEFFFEFAF
:1007F80023C0DE0116960E9479068D010E94D3055A
:10080800EE83FF83E0E0E887E987DE011A960E941D
:1008180079060E948106FA93EA931A930A93EDE700
:10082800F2E0FA93EA93DE011A96A3DE9F01AE8105
:10083800BF81E0E0EC93F9010E9497062A96FF90A9
:100848000895AA93EA81E370EA83E981E03019F018
:10085800EA81E061EA83E881E03019F0EA81E06842
:10086800EA830E94DA05A7E00E945706AA810E943F
:10087800DF05CAC0BA93AA930E94DA05A0E00E94D5
:10088800DF050E94E3050E94EB050E94F2050E9425
:10089800F805AE2F0E945205AC81BD81EC930E94F1
:1008A800320626960895AA930E94DA05A0E00E94CF
:1008B800FE050E9404060E940A060E94DF05A4C0E5
:1008C800BA93AA930E94DA05A3E00E94DF050E946A
:1008D800E305AE81BF81EC930E94F205AC81BD8136
:1008E800EC930E94F2050E94F8050E94EB050E9415
:1008F800320628960895AA930E94DA05A3E00E947A
:100908005706AB810E940A060E9404060E94FE0553
:100918000E94DF0524960895AA93EBB3EF70AE2FDB
:10092800E881E07FEA2BEBBB8DE08A95F1F7DA9A54
:100938008DE08A95F1F7DA988DE08A95F1F793C002
:10094800AA93A881E9DFE881E295E883A881E4DF3A
:1009580085E88A95F1F787C0AA93A981F1DFD89A2B
:10096800A881EEDFD8980BC0AA93E881F0E0EC5993
:10097800FE4FE081A981AE0FE3DFD980C8802296BF
:100988000895A2E00E941006ACE0DADFA1E00E9420
:100998001006E0E0CE2EDE2E0895AA93A881AA3094
:1009A80021F0E0916801DE1648F0E0E0EA93C39494
:1009B800AC2DDADFA881AA3009F455C0D394D89AAF
:1009C800A881BEDFD8984FC0BA93AA931A93A98179
:1009D800BA81ED91A983BA831E2FE03019F0A12FB7
:1009E800DCDFF5CF10C0BA93AA931A93E981FA8194
:1009F8003196E983FA833197E4911E2FE03019F09C
:100A0800A12FCBDFF3CF188123960895AA93EAB3D9
:100A1800E06FEABBD29AD09AD19ADA98D898D99846
:100A2800E881E0936801E058E0936601E881E054CA
:100A3800E0936701A4E1B0E00E946F060E941606E9
:100A48000E9416060E941606A0E266DF88EC90E077
:100A58000197F1F7A8E274DFA4E072DFA5E870DF80
:100A6800A6E06EDF8EDF21960895BA93AA93A99126
:100A7800B991EE27FF276D91662311F03196FBCFD0
:100A88000895BA93AA93AA27BB27E991F9910590EB
:100A9800002011F01196FBCFFD010895AA93E8817B
:100AA800E295EF70AE2FAA0FAA0FEA0FEE0FA991E9
:100AB800AF70EA0F0895AA93A991EE27AA5012F0F1
:100AC800E05FFCCFA65FEA0F0895EA93A0E00E94DA
:100AD800B804AEE9B0E00C94F704EA93A1E00E94F0
:100AE800B804AEE9B0E00C94F7045A924A92A72DE4
:100AF8000E945704AAE0B0E00C946F06EBE0F0E027
:100B0800FA93EA93E8E0F0E0FA93EA93E9E0F0E098
:100B1800FA93EA93A6E0B0E00C946404BA928A923D
:100B28009A92A62D0C947F04EA93A1E00C94B80441
:100B3800E5E0F0E0FA93EA93E4E0F0E0FA93EA9370
:100B4800A7E0B0E00C943E04FF27662777270E94B1
:100B5800890608952A93AD85BE85EF85F88909959C
:100B68000895E889F9893497E88BF98B0895AD855C
:100B7800BE85EF85F88909950895A889B9891496DD
:100B88000E948106EE83FF83AE81BF810895A88904
:100B9800B98914960E948106EA87FB870895DE01C9
:100BA8001C960E9479060E94810608950E942306D9
:100BB800A0ED0C9457060E9457060C9432060E942A
:100BC8002306A1ED0E945706A1E00C943C06AE2F27
:100BD8000E945205A881B981EC930895A1E00E9472
:100BE8003C06AE2F0C945205AA81BB81EC93A0E081
:100BF8000C943C060E945706A8815DDFAE2F08952D
:100C08000E945706A98157DFAE2F08950E94570604
:100C1800AA8151DFAE2F08950E94A404A3E0B0E09A
:100C28000C946F06A0E30E94900488EC90E0019772
:100C3800F1F70895A898A998A09AA19815C0A19825
:100C4800A098EE270000999B0895989B089504D0DA
:100C5800A19A02D0A09AE1E06DE007C0A19AA09AFB
:100C680003D0A098F9DFA1986BE16A95F1F7089590
:100C780078E0A098F1DF989BFECFEEDF88949999F1
:100C88000894A09AF1DFEE1F7A9599F77A2F7723C7
:100C980011F4A19801C0A19ADFDFA098E5DFA09A1E
:100CA800DBDFA198D9CF78E0AA0F10F4A19801C092
:100CB800A19ADADFA098D0DF989BFECFCDDFA09A6B
:100CC8007A9591F7A198C8DFA098CEDFE1E09999CD
:100CD800EE27A09AC1CF109639F080ED97E00197E2
:100CE800F1F7A8951197C9F708950024AF0DB01D25
:100CF8000895F195E195F0400895ED91FC911197D3
:100D080008950590F491E02D08957A936A93FA93E3
:100D1800EA9308955A934A933A932A931A930A9313
:100D280008955D814C813B812A811981088108954C
:00000001FF
